{
    "contractName": "Voting",
    "abi": [
        {
            "anonymous": false,
            "inputs": [
                {
                    "indexed": true,
                    "internalType": "address",
                    "name": "previousOwner",
                    "type": "address"
                },
                {
                    "indexed": true,
                    "internalType": "address",
                    "name": "newOwner",
                    "type": "address"
                }
            ],
            "name": "OwnershipTransferred",
            "type": "event"
        },
        {
            "anonymous": false,
            "inputs": [
                {
                    "indexed": false,
                    "internalType": "uint256",
                    "name": "proposalId",
                    "type": "uint256"
                }
            ],
            "name": "ProposalRegistered",
            "type": "event"
        },
        {
            "anonymous": false,
            "inputs": [
                {
                    "indexed": false,
                    "internalType": "address",
                    "name": "voter",
                    "type": "address"
                },
                {
                    "indexed": false,
                    "internalType": "uint256",
                    "name": "proposalId",
                    "type": "uint256"
                }
            ],
            "name": "Voted",
            "type": "event"
        },
        {
            "anonymous": false,
            "inputs": [
                {
                    "indexed": false,
                    "internalType": "address",
                    "name": "voterAddress",
                    "type": "address"
                }
            ],
            "name": "VoterRegistered",
            "type": "event"
        },
        {
            "anonymous": false,
            "inputs": [
                {
                    "indexed": false,
                    "internalType": "enum Voting.WorkflowStatus",
                    "name": "previousStatus",
                    "type": "uint8"
                },
                {
                    "indexed": false,
                    "internalType": "enum Voting.WorkflowStatus",
                    "name": "newStatus",
                    "type": "uint8"
                }
            ],
            "name": "WorkflowStatusChange",
            "type": "event"
        },
        {
            "inputs": [],
            "name": "admin",
            "outputs": [
                {
                    "internalType": "address",
                    "name": "",
                    "type": "address"
                }
            ],
            "stateMutability": "view",
            "type": "function"
        },
        {
            "inputs": [],
            "name": "currentWorkflowStatus",
            "outputs": [
                {
                    "internalType": "enum Voting.WorkflowStatus",
                    "name": "",
                    "type": "uint8"
                }
            ],
            "stateMutability": "view",
            "type": "function"
        },
        {
            "inputs": [],
            "name": "endProposalsRegistration",
            "outputs": [],
            "stateMutability": "nonpayable",
            "type": "function"
        },
        {
            "inputs": [],
            "name": "endVotingSession",
            "outputs": [],
            "stateMutability": "nonpayable",
            "type": "function"
        },
        {
            "inputs": [],
            "name": "owner",
            "outputs": [
                {
                    "internalType": "address",
                    "name": "",
                    "type": "address"
                }
            ],
            "stateMutability": "view",
            "type": "function"
        },
        {
            "inputs": [
                {
                    "internalType": "uint256",
                    "name": "",
                    "type": "uint256"
                }
            ],
            "name": "proposals",
            "outputs": [
                {
                    "internalType": "string",
                    "name": "description",
                    "type": "string"
                },
                {
                    "internalType": "uint256",
                    "name": "voteCount",
                    "type": "uint256"
                }
            ],
            "stateMutability": "view",
            "type": "function"
        },
        {
            "inputs": [
                {
                    "internalType": "address[]",
                    "name": "_voters",
                    "type": "address[]"
                }
            ],
            "name": "registerVoters",
            "outputs": [],
            "stateMutability": "nonpayable",
            "type": "function"
        },
        {
            "inputs": [],
            "name": "renounceOwnership",
            "outputs": [],
            "stateMutability": "nonpayable",
            "type": "function"
        },
        {
            "inputs": [],
            "name": "startProposalsRegistration",
            "outputs": [],
            "stateMutability": "nonpayable",
            "type": "function"
        },
        {
            "inputs": [],
            "name": "startVotingSession",
            "outputs": [],
            "stateMutability": "nonpayable",
            "type": "function"
        },
        {
            "inputs": [
                {
                    "internalType": "address",
                    "name": "newOwner",
                    "type": "address"
                }
            ],
            "name": "transferOwnership",
            "outputs": [],
            "stateMutability": "nonpayable",
            "type": "function"
        },
        {
            "inputs": [
                {
                    "internalType": "address",
                    "name": "",
                    "type": "address"
                }
            ],
            "name": "voters",
            "outputs": [
                {
                    "internalType": "bool",
                    "name": "isRegistered",
                    "type": "bool"
                },
                {
                    "internalType": "bool",
                    "name": "hasVoted",
                    "type": "bool"
                },
                {
                    "internalType": "uint256",
                    "name": "votedProposalId",
                    "type": "uint256"
                }
            ],
            "stateMutability": "view",
            "type": "function"
        },
        {
            "inputs": [],
            "name": "winningProposalId",
            "outputs": [
                {
                    "internalType": "uint256",
                    "name": "",
                    "type": "uint256"
                }
            ],
            "stateMutability": "view",
            "type": "function"
        }
    ],
    "bytecode": "608060405234801561001057600080fd5b5061001a3361001f565b61006f565b600080546001600160a01b038381166001600160a01b0319831681178455604051919092169283917f8be0079c531659141344cd1fd0a4f28419497f9722a3daafe3b4186f6b6457e09190a35050565b610c7e8061007e6000396000f3fe608060405234801561001057600080fd5b50600436106100cf5760003560e01c8063c64963c51161008c578063ee74c67811610066578063ee74c678146101c0578063f2fde38b146101c8578063f7ad7645146101db578063f851a440146101f557600080fd5b8063c64963c51461018e578063d55ec9c1146101a5578063e09b8c79146101b857600080fd5b8063013cf08b146100d45780636c297445146100fe578063715018a6146101085780638da5cb5b14610110578063a3ec138d14610135578063a7bfab1614610186575b600080fd5b6100e76100e236600461097d565b61020d565b6040516100f5929190610996565b60405180910390f35b6101066102c9565b005b6101066103b9565b6000546001600160a01b03165b6040516001600160a01b0390911681526020016100f5565b610169610143366004610a07565b6002602052600090815260409020805460019091015460ff808316926101009004169083565b6040805193151584529115156020840152908201526060016100f5565b6101066103cd565b61019760015481565b6040519081526020016100f5565b6101066101b3366004610a3f565b61049e565b6101066106a4565b610106610783565b6101066101d6366004610a07565b61085a565b6004546101e89060ff1681565b6040516100f59190610b3c565b60045461011d9061010090046001600160a01b031681565b6003818154811061021d57600080fd5b906000526020600020906002020160009150905080600001805461024090610b50565b80601f016020809104026020016040519081016040528092919081815260200182805461026c90610b50565b80156102b95780601f1061028e576101008083540402835291602001916102b9565b820191906000526020600020905b81548152906001019060200180831161029c57829003601f168201915b5050505050908060010154905082565b60045461010090046001600160a01b031633146103015760405162461bcd60e51b81526004016102f890610b8a565b60405180910390fd5b600160045460ff16600581111561031a5761031a610b04565b1461037f5760405162461bcd60e51b815260206004820152602f60248201527f43616e6e6f7420656e642070726f706f73616c7320726567697374726174696f60448201526e371030ba103a3434b9903a34b6b29760891b60648201526084016102f8565b6004805460ff19166002908117909155604051600080516020610c29833981519152916103af9160019190610bd0565b60405180910390a1565b6103c16108d3565b6103cb600061092d565b565b60045461010090046001600160a01b031633146103fc5760405162461bcd60e51b81526004016102f890610b8a565b600360045460ff16600581111561041557610415610b04565b146104725760405162461bcd60e51b815260206004820152602760248201527f43616e6e6f7420656e6420766f74696e672073657373696f6e2061742074686960448201526639903a34b6b29760c91b60648201526084016102f8565b6004805460ff191681178155604051600080516020610c29833981519152916103af9160039190610bd0565b60045461010090046001600160a01b031633146104cd5760405162461bcd60e51b81526004016102f890610b8a565b600060045460ff1660058111156104e6576104e6610b04565b1461053f5760405162461bcd60e51b8152602060048201526024808201527f43616e6e6f7420726567697374657220766f746572732061742074686973207460448201526334b6b29760e11b60648201526084016102f8565b60005b81518110156106a0576002600083838151811061056157610561610beb565b6020908102919091018101516001600160a01b031682528101919091526040016000205460ff16156105d55760405162461bcd60e51b815260206004820152601960248201527f566f74657220616c726561647920726567697374657265642e0000000000000060448201526064016102f8565b6001600260008484815181106105ed576105ed610beb565b60200260200101516001600160a01b03166001600160a01b0316815260200190815260200160002060000160006101000a81548160ff0219169083151502179055507fb6be2187d059cc2a55fe29e0e503b566e1e0f8c8780096e185429350acffd3dd82828151811061066257610662610beb565b602002602001015160405161068691906001600160a01b0391909116815260200190565b60405180910390a18061069881610c01565b915050610542565b5050565b60045461010090046001600160a01b031633146106d35760405162461bcd60e51b81526004016102f890610b8a565b600060045460ff1660058111156106ec576106ec610b04565b146107535760405162461bcd60e51b815260206004820152603160248201527f43616e6e6f742073746172742070726f706f73616c732072656769737472617460448201527034b7b71030ba103a3434b9903a34b6b29760791b60648201526084016102f8565b6004805460ff19166001908117909155604051600080516020610c29833981519152916103af9160009190610bd0565b60045461010090046001600160a01b031633146107b25760405162461bcd60e51b81526004016102f890610b8a565b600260045460ff1660058111156107cb576107cb610b04565b1461082a5760405162461bcd60e51b815260206004820152602960248201527f43616e6e6f7420737461727420766f74696e672073657373696f6e20617420746044820152683434b9903a34b6b29760b91b60648201526084016102f8565b6004805460ff19166003908117909155604051600080516020610c29833981519152916103af9160029190610bd0565b6108626108d3565b6001600160a01b0381166108c75760405162461bcd60e51b815260206004820152602660248201527f4f776e61626c653a206e6577206f776e657220697320746865207a65726f206160448201526564647265737360d01b60648201526084016102f8565b6108d08161092d565b50565b6000546001600160a01b031633146103cb5760405162461bcd60e51b815260206004820181905260248201527f4f776e61626c653a2063616c6c6572206973206e6f7420746865206f776e657260448201526064016102f8565b600080546001600160a01b038381166001600160a01b0319831681178455604051919092169283917f8be0079c531659141344cd1fd0a4f28419497f9722a3daafe3b4186f6b6457e09190a35050565b60006020828403121561098f57600080fd5b5035919050565b604081526000835180604084015260005b818110156109c457602081870181015160608684010152016109a7565b506000606082850101526060601f19601f8301168401019150508260208301529392505050565b80356001600160a01b0381168114610a0257600080fd5b919050565b600060208284031215610a1957600080fd5b610a22826109eb565b9392505050565b634e487b7160e01b600052604160045260246000fd5b60006020808385031215610a5257600080fd5b823567ffffffffffffffff80821115610a6a57600080fd5b818501915085601f830112610a7e57600080fd5b813581811115610a9057610a90610a29565b8060051b604051601f19603f83011681018181108582111715610ab557610ab5610a29565b604052918252848201925083810185019188831115610ad357600080fd5b938501935b82851015610af857610ae9856109eb565b84529385019392850192610ad8565b98975050505050505050565b634e487b7160e01b600052602160045260246000fd5b60068110610b3857634e487b7160e01b600052602160045260246000fd5b9052565b60208101610b4a8284610b1a565b92915050565b600181811c90821680610b6457607f821691505b602082108103610b8457634e487b7160e01b600052602260045260246000fd5b50919050565b60208082526026908201527f4f6e6c79207468652061646d696e2063616e2063616c6c20746869732066756e60408201526531ba34b7b71760d11b606082015260800190565b60408101610bde8285610b1a565b610a226020830184610b1a565b634e487b7160e01b600052603260045260246000fd5b600060018201610c2157634e487b7160e01b600052601160045260246000fd5b506001019056fe0a97a4ee45751e2abf3e4fc8946939630b11b371ea8ae39ccdc3056e98f5cc3fa2646970667358221220cee85eeb79f6d2aada969c92f09073b5bcce9e34a028c22cd97a323365d51b7a64736f6c63430008130033",
    "sourcePath": "c:/Users/teova/OneDrive/Bureau/INFORMATIQUE/L3_IMT_2022_2023/PROJET_CRYPTO/depot_blockchain/blockchain-vote/contracts/Voting.sol",
    "compiler": {
        "name": "solc",
        "version": "0.8.19+commit.7dd6d404"
    },
    "functionHashes": {
        "admin()": "f851a440",
        "currentWorkflowStatus()": "f7ad7645",
        "endProposalsRegistration()": "6c297445",
        "endVotingSession()": "a7bfab16",
        "owner()": "8da5cb5b",
        "proposals(uint256)": "013cf08b",
        "registerVoters(address[])": "d55ec9c1",
        "renounceOwnership()": "715018a6",
        "startProposalsRegistration()": "e09b8c79",
        "startVotingSession()": "ee74c678",
        "transferOwnership(address)": "f2fde38b",
        "voters(address)": "a3ec138d",
        "winningProposalId()": "c64963c5"
    },
    "gasEstimates": {
        "creation": {
            "codeDepositCost": "639600",
            "executionCost": "26511",
            "totalCost": "666111"
        },
        "external": {
            "admin()": "2436",
            "currentWorkflowStatus()": "2451",
            "endProposalsRegistration()": "infinite",
            "endVotingSession()": "infinite",
            "owner()": "2387",
            "proposals(uint256)": "infinite",
            "registerVoters(address[])": "infinite",
            "renounceOwnership()": "infinite",
            "startProposalsRegistration()": "infinite",
            "startVotingSession()": "infinite",
            "transferOwnership(address)": "28377",
            "voters(address)": "4803",
            "winningProposalId()": "2318"
        }
    }
}