{
    "contractName": "Voting",
    "abi": [
        {
            "anonymous": false,
            "inputs": [
                {
                    "indexed": true,
                    "internalType": "address",
                    "name": "previousOwner",
                    "type": "address"
                },
                {
                    "indexed": true,
                    "internalType": "address",
                    "name": "newOwner",
                    "type": "address"
                }
            ],
            "name": "OwnershipTransferred",
            "type": "event"
        },
        {
            "anonymous": false,
            "inputs": [
                {
                    "indexed": false,
                    "internalType": "uint256",
                    "name": "proposalId",
                    "type": "uint256"
                }
            ],
            "name": "ProposalRegistered",
            "type": "event"
        },
        {
            "anonymous": false,
            "inputs": [
                {
                    "indexed": false,
                    "internalType": "address",
                    "name": "voter",
                    "type": "address"
                },
                {
                    "indexed": false,
                    "internalType": "uint256",
                    "name": "proposalId",
                    "type": "uint256"
                }
            ],
            "name": "Voted",
            "type": "event"
        },
        {
            "anonymous": false,
            "inputs": [
                {
                    "indexed": false,
                    "internalType": "address",
                    "name": "voterAddress",
                    "type": "address"
                }
            ],
            "name": "VoterRegistered",
            "type": "event"
        },
        {
            "anonymous": false,
            "inputs": [
                {
                    "indexed": false,
                    "internalType": "enum Voting.WorkflowStatus",
                    "name": "previousStatus",
                    "type": "uint8"
                },
                {
                    "indexed": false,
                    "internalType": "enum Voting.WorkflowStatus",
                    "name": "newStatus",
                    "type": "uint8"
                }
            ],
            "name": "WorkflowStatusChange",
            "type": "event"
        },
        {
            "inputs": [],
            "name": "admin",
            "outputs": [
                {
                    "internalType": "address",
                    "name": "",
                    "type": "address"
                }
            ],
            "stateMutability": "view",
            "type": "function"
        },
        {
            "inputs": [],
            "name": "currentWorkflowStatus",
            "outputs": [
                {
                    "internalType": "enum Voting.WorkflowStatus",
                    "name": "",
                    "type": "uint8"
                }
            ],
            "stateMutability": "view",
            "type": "function"
        },
        {
            "inputs": [],
            "name": "endProposalsRegistration",
            "outputs": [],
            "stateMutability": "nonpayable",
            "type": "function"
        },
        {
            "inputs": [],
            "name": "endVotingSession",
            "outputs": [],
            "stateMutability": "nonpayable",
            "type": "function"
        },
        {
            "inputs": [],
            "name": "owner",
            "outputs": [
                {
                    "internalType": "address",
                    "name": "",
                    "type": "address"
                }
            ],
            "stateMutability": "view",
            "type": "function"
        },
        {
            "inputs": [
                {
                    "internalType": "uint256",
                    "name": "",
                    "type": "uint256"
                }
            ],
            "name": "proposals",
            "outputs": [
                {
                    "internalType": "string",
                    "name": "description",
                    "type": "string"
                },
                {
                    "internalType": "uint256",
                    "name": "voteCount",
                    "type": "uint256"
                }
            ],
            "stateMutability": "view",
            "type": "function"
        },
        {
            "inputs": [
                {
                    "internalType": "string",
                    "name": "_description",
                    "type": "string"
                }
            ],
            "name": "registerProposal",
            "outputs": [],
            "stateMutability": "nonpayable",
            "type": "function"
        },
        {
            "inputs": [
                {
                    "internalType": "address[]",
                    "name": "_voters",
                    "type": "address[]"
                }
            ],
            "name": "registerVoters",
            "outputs": [],
            "stateMutability": "nonpayable",
            "type": "function"
        },
        {
            "inputs": [],
            "name": "renounceOwnership",
            "outputs": [],
            "stateMutability": "nonpayable",
            "type": "function"
        },
        {
            "inputs": [],
            "name": "startProposalsRegistration",
            "outputs": [],
            "stateMutability": "nonpayable",
            "type": "function"
        },
        {
            "inputs": [],
            "name": "startVotingSession",
            "outputs": [],
            "stateMutability": "nonpayable",
            "type": "function"
        },
        {
            "inputs": [],
            "name": "tallyVotes",
            "outputs": [],
            "stateMutability": "nonpayable",
            "type": "function"
        },
        {
            "inputs": [
                {
                    "internalType": "address",
                    "name": "newOwner",
                    "type": "address"
                }
            ],
            "name": "transferOwnership",
            "outputs": [],
            "stateMutability": "nonpayable",
            "type": "function"
        },
        {
            "inputs": [
                {
                    "internalType": "uint256",
                    "name": "_proposalId",
                    "type": "uint256"
                }
            ],
            "name": "vote",
            "outputs": [],
            "stateMutability": "nonpayable",
            "type": "function"
        },
        {
            "inputs": [
                {
                    "internalType": "address",
                    "name": "",
                    "type": "address"
                }
            ],
            "name": "voters",
            "outputs": [
                {
                    "internalType": "bool",
                    "name": "isRegistered",
                    "type": "bool"
                },
                {
                    "internalType": "bool",
                    "name": "hasVoted",
                    "type": "bool"
                },
                {
                    "internalType": "uint256",
                    "name": "votedProposalId",
                    "type": "uint256"
                }
            ],
            "stateMutability": "view",
            "type": "function"
        },
        {
            "inputs": [],
            "name": "winningProposalId",
            "outputs": [
                {
                    "internalType": "uint256",
                    "name": "",
                    "type": "uint256"
                }
            ],
            "stateMutability": "view",
            "type": "function"
        }
    ],
    "bytecode": "608060405234801561001057600080fd5b5061001a3361001f565b61006f565b600080546001600160a01b038381166001600160a01b0319831681178455604051919092169283917f8be0079c531659141344cd1fd0a4f28419497f9722a3daafe3b4186f6b6457e09190a35050565b6113168061007e6000396000f3fe608060405234801561001057600080fd5b50600436106101005760003560e01c8063a7bfab1611610097578063ee74c67811610066578063ee74c6781461021f578063f2fde38b14610227578063f7ad76451461023a578063f851a4401461025457600080fd5b8063a7bfab16146101e5578063c64963c5146101ed578063d55ec9c114610204578063e09b8c791461021757600080fd5b80636c297445116100d35780636c2974451461015f578063715018a6146101675780638da5cb5b1461016f578063a3ec138d1461019457600080fd5b80630121b93f14610105578063013cf08b1461011a5780632f95355b14610144578063378a217814610157575b600080fd5b610118610113366004610e3d565b61026c565b005b61012d610128366004610e3d565b61042e565b60405161013b929190610e56565b60405180910390f35b610118610152366004610ef2565b6104ea565b610118610665565b610118610792565b610118610879565b6000546001600160a01b03165b6040516001600160a01b03909116815260200161013b565b6101c86101a2366004610fa3565b6002602052600090815260409020805460019091015460ff808316926101009004169083565b60408051931515845291151560208401529082015260600161013b565b61011861088d565b6101f660015481565b60405190815260200161013b565b610118610212366004610fc5565b61095e565b610118610b64565b610118610c43565b610118610235366004610fa3565b610d1a565b6004546102479060ff1681565b60405161013b91906110aa565b60045461017c9061010090046001600160a01b031681565b3360009081526002602052604090205460ff166102d05760405162461bcd60e51b815260206004820152601f60248201527f596f7520617265206e6f74207265676973746572656420746f20766f74652e0060448201526064015b60405180910390fd5b600360045460ff1660058111156102e9576102e9611072565b146103405760405162461bcd60e51b815260206004820152602160248201527f54686520766f74696e672073657373696f6e206973206e6f74206163746976656044820152601760f91b60648201526084016102c7565b3360009081526002602052604090208054610100900460ff16156103a65760405162461bcd60e51b815260206004820152601760248201527f596f75206861766520616c726561647920766f7465642e00000000000000000060448201526064016102c7565b805461ff0019166101001781556001810182905560038054839081106103ce576103ce6110be565b6000918252602082206001600290920201018054916103ec836110ea565b909155505060408051338152602081018490527f4d99b957a2bc29a30ebd96a7be8e68fe50a3c701db28a91436490b7d53870ca4910160405180910390a15050565b6003818154811061043e57600080fd5b906000526020600020906002020160009150905080600001805461046190611103565b80601f016020809104026020016040519081016040528092919081815260200182805461048d90611103565b80156104da5780601f106104af576101008083540402835291602001916104da565b820191906000526020600020905b8154815290600101906020018083116104bd57829003601f168201915b5050505050908060010154905082565b3360009081526002602052604090205460ff166105495760405162461bcd60e51b815260206004820152601f60248201527f596f7520617265206e6f74207265676973746572656420746f20766f74652e0060448201526064016102c7565b600160045460ff16600581111561056257610562611072565b146105bd5760405162461bcd60e51b815260206004820152602560248201527f50726f706f73616c7320726567697374726174696f6e206973206e6f742061636044820152643a34bb329760d91b60648201526084016102c7565b60408051808201909152818152600060208201819052600380546001810182559152815160029091027fc2575a0e9e593c00f959f8c92f12db2869c3395a3b0502d05e2516446f71f85b01908190610615908261118c565b50602091909101516001918201556003547f92e393e9b54e2f801d3ea4beb0c5e71a21cc34a5d34b77d0fb8a3aa1650dc18f916106519161124c565b60405190815260200160405180910390a150565b60045461010090046001600160a01b031633146106945760405162461bcd60e51b81526004016102c79061125f565b6004805460ff1660058111156106ac576106ac611072565b146107055760405162461bcd60e51b815260206004820152602360248201527f54686520766f74696e672073657373696f6e206973207374696c6c20616374696044820152623b329760e91b60648201526084016102c7565b60008060005b60035481101561077e578260038281548110610729576107296110be565b906000526020600020906002020160010154111561076c5760038181548110610754576107546110be565b90600052602060002090600202016001015492508091505b80610776816110ea565b91505061070b565b50600155506004805460ff19166005179055565b60045461010090046001600160a01b031633146107c15760405162461bcd60e51b81526004016102c79061125f565b600160045460ff1660058111156107da576107da611072565b1461083f5760405162461bcd60e51b815260206004820152602f60248201527f43616e6e6f7420656e642070726f706f73616c7320726567697374726174696f60448201526e371030ba103a3434b9903a34b6b29760891b60648201526084016102c7565b6004805460ff191660029081179091556040516000805160206112c18339815191529161086f91600191906112a5565b60405180910390a1565b610881610d93565b61088b6000610ded565b565b60045461010090046001600160a01b031633146108bc5760405162461bcd60e51b81526004016102c79061125f565b600360045460ff1660058111156108d5576108d5611072565b146109325760405162461bcd60e51b815260206004820152602760248201527f43616e6e6f7420656e6420766f74696e672073657373696f6e2061742074686960448201526639903a34b6b29760c91b60648201526084016102c7565b6004805460ff1916811781556040516000805160206112c18339815191529161086f91600391906112a5565b60045461010090046001600160a01b0316331461098d5760405162461bcd60e51b81526004016102c79061125f565b600060045460ff1660058111156109a6576109a6611072565b146109ff5760405162461bcd60e51b8152602060048201526024808201527f43616e6e6f7420726567697374657220766f746572732061742074686973207460448201526334b6b29760e11b60648201526084016102c7565b60005b8151811015610b605760026000838381518110610a2157610a216110be565b6020908102919091018101516001600160a01b031682528101919091526040016000205460ff1615610a955760405162461bcd60e51b815260206004820152601960248201527f566f74657220616c726561647920726567697374657265642e0000000000000060448201526064016102c7565b600160026000848481518110610aad57610aad6110be565b60200260200101516001600160a01b03166001600160a01b0316815260200190815260200160002060000160006101000a81548160ff0219169083151502179055507fb6be2187d059cc2a55fe29e0e503b566e1e0f8c8780096e185429350acffd3dd828281518110610b2257610b226110be565b6020026020010151604051610b4691906001600160a01b0391909116815260200190565b60405180910390a180610b58816110ea565b915050610a02565b5050565b60045461010090046001600160a01b03163314610b935760405162461bcd60e51b81526004016102c79061125f565b600060045460ff166005811115610bac57610bac611072565b14610c135760405162461bcd60e51b815260206004820152603160248201527f43616e6e6f742073746172742070726f706f73616c732072656769737472617460448201527034b7b71030ba103a3434b9903a34b6b29760791b60648201526084016102c7565b6004805460ff191660019081179091556040516000805160206112c18339815191529161086f91600091906112a5565b60045461010090046001600160a01b03163314610c725760405162461bcd60e51b81526004016102c79061125f565b600260045460ff166005811115610c8b57610c8b611072565b14610cea5760405162461bcd60e51b815260206004820152602960248201527f43616e6e6f7420737461727420766f74696e672073657373696f6e20617420746044820152683434b9903a34b6b29760b91b60648201526084016102c7565b6004805460ff191660039081179091556040516000805160206112c18339815191529161086f91600291906112a5565b610d22610d93565b6001600160a01b038116610d875760405162461bcd60e51b815260206004820152602660248201527f4f776e61626c653a206e6577206f776e657220697320746865207a65726f206160448201526564647265737360d01b60648201526084016102c7565b610d9081610ded565b50565b6000546001600160a01b0316331461088b5760405162461bcd60e51b815260206004820181905260248201527f4f776e61626c653a2063616c6c6572206973206e6f7420746865206f776e657260448201526064016102c7565b600080546001600160a01b038381166001600160a01b0319831681178455604051919092169283917f8be0079c531659141344cd1fd0a4f28419497f9722a3daafe3b4186f6b6457e09190a35050565b600060208284031215610e4f57600080fd5b5035919050565b604081526000835180604084015260005b81811015610e845760208187018101516060868401015201610e67565b506000606082850101526060601f19601f8301168401019150508260208301529392505050565b634e487b7160e01b600052604160045260246000fd5b604051601f8201601f1916810167ffffffffffffffff81118282101715610eea57610eea610eab565b604052919050565b60006020808385031215610f0557600080fd5b823567ffffffffffffffff80821115610f1d57600080fd5b818501915085601f830112610f3157600080fd5b813581811115610f4357610f43610eab565b610f55601f8201601f19168501610ec1565b91508082528684828501011115610f6b57600080fd5b8084840185840137600090820190930192909252509392505050565b80356001600160a01b0381168114610f9e57600080fd5b919050565b600060208284031215610fb557600080fd5b610fbe82610f87565b9392505050565b60006020808385031215610fd857600080fd5b823567ffffffffffffffff80821115610ff057600080fd5b818501915085601f83011261100457600080fd5b81358181111561101657611016610eab565b8060051b9150611027848301610ec1565b818152918301840191848101908884111561104157600080fd5b938501935b838510156110665761105785610f87565b82529385019390850190611046565b98975050505050505050565b634e487b7160e01b600052602160045260246000fd5b600681106110a657634e487b7160e01b600052602160045260246000fd5b9052565b602081016110b88284611088565b92915050565b634e487b7160e01b600052603260045260246000fd5b634e487b7160e01b600052601160045260246000fd5b6000600182016110fc576110fc6110d4565b5060010190565b600181811c9082168061111757607f821691505b60208210810361113757634e487b7160e01b600052602260045260246000fd5b50919050565b601f82111561118757600081815260208120601f850160051c810160208610156111645750805b601f850160051c820191505b8181101561118357828155600101611170565b5050505b505050565b815167ffffffffffffffff8111156111a6576111a6610eab565b6111ba816111b48454611103565b8461113d565b602080601f8311600181146111ef57600084156111d75750858301515b600019600386901b1c1916600185901b178555611183565b600085815260208120601f198616915b8281101561121e578886015182559484019460019091019084016111ff565b508582101561123c5787850151600019600388901b60f8161c191681555b5050505050600190811b01905550565b818103818111156110b8576110b86110d4565b60208082526026908201527f4f6e6c79207468652061646d696e2063616e2063616c6c20746869732066756e60408201526531ba34b7b71760d11b606082015260800190565b604081016112b38285611088565b610fbe602083018461108856fe0a97a4ee45751e2abf3e4fc8946939630b11b371ea8ae39ccdc3056e98f5cc3fa26469706673582212208611d2799e41954d14d6759b66b6537cb852a688225c6f36d9668d7802b834be64736f6c63430008130033",
    "sourcePath": "c:/Users/teova/OneDrive/Bureau/INFORMATIQUE/L3_IMT_2022_2023/PROJET_CRYPTO/depot_blockchain/blockchain-vote/contracts/Voting.sol",
    "compiler": {
        "name": "solc",
        "version": "0.8.19+commit.7dd6d404"
    },
    "functionHashes": {
        "admin()": "f851a440",
        "currentWorkflowStatus()": "f7ad7645",
        "endProposalsRegistration()": "6c297445",
        "endVotingSession()": "a7bfab16",
        "owner()": "8da5cb5b",
        "proposals(uint256)": "013cf08b",
        "registerProposal(string)": "2f95355b",
        "registerVoters(address[])": "d55ec9c1",
        "renounceOwnership()": "715018a6",
        "startProposalsRegistration()": "e09b8c79",
        "startVotingSession()": "ee74c678",
        "tallyVotes()": "378a2178",
        "transferOwnership(address)": "f2fde38b",
        "vote(uint256)": "0121b93f",
        "voters(address)": "a3ec138d",
        "winningProposalId()": "c64963c5"
    },
    "gasEstimates": {
        "creation": {
            "codeDepositCost": "977200",
            "executionCost": "26855",
            "totalCost": "1004055"
        },
        "external": {
            "admin()": "2436",
            "currentWorkflowStatus()": "2451",
            "endProposalsRegistration()": "infinite",
            "endVotingSession()": "infinite",
            "owner()": "2387",
            "proposals(uint256)": "infinite",
            "registerProposal(string)": "infinite",
            "registerVoters(address[])": "infinite",
            "renounceOwnership()": "infinite",
            "startProposalsRegistration()": "infinite",
            "startVotingSession()": "infinite",
            "tallyVotes()": "infinite",
            "transferOwnership(address)": "28377",
            "vote(uint256)": "80961",
            "voters(address)": "4803",
            "winningProposalId()": "2340"
        }
    }
}