{
    "contractName": "Voting",
    "abi": [
        {
            "anonymous": false,
            "inputs": [
                {
                    "indexed": true,
                    "internalType": "address",
                    "name": "previousOwner",
                    "type": "address"
                },
                {
                    "indexed": true,
                    "internalType": "address",
                    "name": "newOwner",
                    "type": "address"
                }
            ],
            "name": "OwnershipTransferred",
            "type": "event"
        },
        {
            "inputs": [],
            "name": "owner",
            "outputs": [
                {
                    "internalType": "address",
                    "name": "",
                    "type": "address"
                }
            ],
            "stateMutability": "view",
            "type": "function"
        },
        {
            "inputs": [],
            "name": "renounceOwnership",
            "outputs": [],
            "stateMutability": "nonpayable",
            "type": "function"
        },
        {
            "inputs": [
                {
                    "internalType": "address",
                    "name": "newOwner",
                    "type": "address"
                }
            ],
            "name": "transferOwnership",
            "outputs": [],
            "stateMutability": "nonpayable",
            "type": "function"
        },
        {
            "inputs": [],
            "name": "winningProposalId",
            "outputs": [
                {
                    "internalType": "uint256",
                    "name": "",
                    "type": "uint256"
                }
            ],
            "stateMutability": "view",
            "type": "function"
        }
    ],
    "bytecode": "608060405234801561001057600080fd5b5061001a3361001f565b61006f565b600080546001600160a01b038381166001600160a01b0319831681178455604051919092169283917f8be0079c531659141344cd1fd0a4f28419497f9722a3daafe3b4186f6b6457e09190a35050565b6102478061007e6000396000f3fe608060405234801561001057600080fd5b506004361061004c5760003560e01c8063715018a6146100515780638da5cb5b1461005b578063c64963c51461007b578063f2fde38b14610092575b600080fd5b6100596100a5565b005b6000546040516001600160a01b0390911681526020015b60405180910390f35b61008460015481565b604051908152602001610072565b6100596100a03660046101e1565b6100b9565b6100ad610137565b6100b76000610191565b565b6100c1610137565b6001600160a01b03811661012b5760405162461bcd60e51b815260206004820152602660248201527f4f776e61626c653a206e6577206f776e657220697320746865207a65726f206160448201526564647265737360d01b60648201526084015b60405180910390fd5b61013481610191565b50565b6000546001600160a01b031633146100b75760405162461bcd60e51b815260206004820181905260248201527f4f776e61626c653a2063616c6c6572206973206e6f7420746865206f776e65726044820152606401610122565b600080546001600160a01b038381166001600160a01b0319831681178455604051919092169283917f8be0079c531659141344cd1fd0a4f28419497f9722a3daafe3b4186f6b6457e09190a35050565b6000602082840312156101f357600080fd5b81356001600160a01b038116811461020a57600080fd5b939250505056fea2646970667358221220ca91bee0d547fed73e2b7bafd39fa7f0a7c838d026bacc551d1661007164f4ad64736f6c63430008130033",
    "sourcePath": "c:/Users/teova/OneDrive/Bureau/INFORMATIQUE/L3_IMT_2022_2023/PROJET_CRYPTO/depot_blockchain/blockchain-vote/contracts/Voting.sol",
    "compiler": {
        "name": "solc",
        "version": "0.8.19+commit.7dd6d404"
    },
    "functionHashes": {
        "owner()": "8da5cb5b",
        "renounceOwnership()": "715018a6",
        "transferOwnership(address)": "f2fde38b",
        "winningProposalId()": "c64963c5"
    },
    "gasEstimates": {
        "creation": {
            "codeDepositCost": "116600",
            "executionCost": "26006",
            "totalCost": "142606"
        },
        "external": {
            "owner()": "2290",
            "renounceOwnership()": "infinite",
            "transferOwnership(address)": "28342",
            "winningProposalId()": "2317"
        }
    }
}