{
  "contractName": "Voting",
  "abi": [
    {
      "anonymous": false,
      "inputs": [
        {
          "indexed": true,
          "internalType": "address",
          "name": "previousOwner",
          "type": "address"
        },
        {
          "indexed": true,
          "internalType": "address",
          "name": "newOwner",
          "type": "address"
        }
      ],
      "name": "OwnershipTransferred",
      "type": "event"
    },
    {
      "anonymous": false,
      "inputs": [
        {
          "indexed": false,
          "internalType": "uint256",
          "name": "proposalId",
          "type": "uint256"
        }
      ],
      "name": "ProposalRegistered",
      "type": "event"
    },
    {
      "anonymous": false,
      "inputs": [
        {
          "indexed": false,
          "internalType": "address",
          "name": "voter",
          "type": "address"
        },
        {
          "indexed": false,
          "internalType": "uint256",
          "name": "proposalId",
          "type": "uint256"
        }
      ],
      "name": "Voted",
      "type": "event"
    },
    {
      "anonymous": false,
      "inputs": [
        {
          "indexed": false,
          "internalType": "address",
          "name": "voterAddress",
          "type": "address"
        }
      ],
      "name": "VoterRegistered",
      "type": "event"
    },
    {
      "anonymous": false,
      "inputs": [
        {
          "indexed": false,
          "internalType": "enum Voting.WorkflowStatus",
          "name": "previousStatus",
          "type": "uint8"
        },
        {
          "indexed": false,
          "internalType": "enum Voting.WorkflowStatus",
          "name": "newStatus",
          "type": "uint8"
        }
      ],
      "name": "WorkflowStatusChange",
      "type": "event"
    },
    {
      "inputs": [],
      "name": "admin",
      "outputs": [
        {
          "internalType": "address",
          "name": "",
          "type": "address"
        }
      ],
      "stateMutability": "view",
      "type": "function",
      "constant": true
    },
    {
      "inputs": [],
      "name": "currentWorkflowStatus",
      "outputs": [
        {
          "internalType": "enum Voting.WorkflowStatus",
          "name": "",
          "type": "uint8"
        }
      ],
      "stateMutability": "view",
      "type": "function",
      "constant": true
    },
    {
      "inputs": [],
      "name": "owner",
      "outputs": [
        {
          "internalType": "address",
          "name": "",
          "type": "address"
        }
      ],
      "stateMutability": "view",
      "type": "function",
      "constant": true
    },
    {
      "inputs": [
        {
          "internalType": "uint256",
          "name": "",
          "type": "uint256"
        }
      ],
      "name": "proposals",
      "outputs": [
        {
          "internalType": "string",
          "name": "description",
          "type": "string"
        },
        {
          "internalType": "uint256",
          "name": "voteCount",
          "type": "uint256"
        }
      ],
      "stateMutability": "view",
      "type": "function",
      "constant": true
    },
    {
      "inputs": [],
      "name": "renounceOwnership",
      "outputs": [],
      "stateMutability": "nonpayable",
      "type": "function"
    },
    {
      "inputs": [
        {
          "internalType": "address",
          "name": "newOwner",
          "type": "address"
        }
      ],
      "name": "transferOwnership",
      "outputs": [],
      "stateMutability": "nonpayable",
      "type": "function"
    },
    {
      "inputs": [
        {
          "internalType": "address",
          "name": "",
          "type": "address"
        }
      ],
      "name": "voters",
      "outputs": [
        {
          "internalType": "bool",
          "name": "isRegistered",
          "type": "bool"
        },
        {
          "internalType": "bool",
          "name": "hasVoted",
          "type": "bool"
        },
        {
          "internalType": "uint256",
          "name": "votedProposalId",
          "type": "uint256"
        }
      ],
      "stateMutability": "view",
      "type": "function",
      "constant": true
    },
    {
      "inputs": [],
      "name": "winningProposalId",
      "outputs": [
        {
          "internalType": "uint256",
          "name": "",
          "type": "uint256"
        }
      ],
      "stateMutability": "view",
      "type": "function",
      "constant": true
    },
    {
      "inputs": [
        {
          "internalType": "address[]",
          "name": "_voters",
          "type": "address[]"
        }
      ],
      "name": "registerVoters",
      "outputs": [],
      "stateMutability": "nonpayable",
      "type": "function"
    },
    {
      "inputs": [],
      "name": "startProposalsRegistration",
      "outputs": [],
      "stateMutability": "nonpayable",
      "type": "function"
    },
    {
      "inputs": [],
      "name": "endProposalsRegistration",
      "outputs": [],
      "stateMutability": "nonpayable",
      "type": "function"
    },
    {
      "inputs": [],
      "name": "startVotingSession",
      "outputs": [],
      "stateMutability": "nonpayable",
      "type": "function"
    },
    {
      "inputs": [],
      "name": "endVotingSession",
      "outputs": [],
      "stateMutability": "nonpayable",
      "type": "function"
    },
    {
      "inputs": [
        {
          "internalType": "string",
          "name": "_description",
          "type": "string"
        }
      ],
      "name": "registerProposal",
      "outputs": [],
      "stateMutability": "nonpayable",
      "type": "function"
    },
    {
      "inputs": [
        {
          "internalType": "uint256",
          "name": "_proposalId",
          "type": "uint256"
        }
      ],
      "name": "vote",
      "outputs": [],
      "stateMutability": "nonpayable",
      "type": "function"
    },
    {
      "inputs": [],
      "name": "tallyVotes",
      "outputs": [],
      "stateMutability": "nonpayable",
      "type": "function"
    }
  ],
  "bytecode": "0x60806040523480156200001157600080fd5b5062000032620000266200003860201b60201c565b6200004060201b60201c565b62000104565b600033905090565b60008060009054906101000a900473ffffffffffffffffffffffffffffffffffffffff169050816000806101000a81548173ffffffffffffffffffffffffffffffffffffffff021916908373ffffffffffffffffffffffffffffffffffffffff1602179055508173ffffffffffffffffffffffffffffffffffffffff168173ffffffffffffffffffffffffffffffffffffffff167f8be0079c531659141344cd1fd0a4f28419497f9722a3daafe3b4186f6b6457e060405160405180910390a35050565b61270280620001146000396000f3fe608060405234801561001057600080fd5b50600436106101005760003560e01c8063a7bfab1611610097578063ee74c67811610066578063ee74c6781461022a578063f2fde38b14610234578063f7ad764514610250578063f851a4401461026e57610100565b8063a7bfab16146101dc578063c64963c5146101e6578063d55ec9c114610204578063e09b8c791461022057610100565b80636c297445116100d35780636c29744514610178578063715018a6146101825780638da5cb5b1461018c578063a3ec138d146101aa57610100565b80630121b93f14610105578063013cf08b146101215780632f95355b14610152578063378a21781461016e575b600080fd5b61011f600480360381019061011a9190611a84565b61028c565b005b61013b60048036038101906101369190611a84565b610536565b604051610149929190611dcb565b60405180910390f35b61016c60048036038101906101679190611a43565b6105f2565b005b6101766107f8565b005b610180610a72565b005b61018a610c60565b005b610194610c74565b6040516101a19190611d0c565b60405180910390f35b6101c460048036038101906101bf91906119d9565b610c9d565b6040516101d393929190611d50565b60405180910390f35b6101e4610ce1565b005b6101ee610ece565b6040516101fb9190611fbb565b60405180910390f35b61021e60048036038101906102199190611a02565b610ed4565b005b61022861122b565b005b610232611419565b005b61024e600480360381019061024991906119d9565b611607565b005b61025861168b565b6040516102659190611d87565b60405180910390f35b61027661169e565b6040516102839190611d0c565b60405180910390f35b600260003373ffffffffffffffffffffffffffffffffffffffff1673ffffffffffffffffffffffffffffffffffffffff16815260200190815260200160002060000160009054906101000a900460ff1661031b576040517f08c379a000000000000000000000000000000000000000000000000000000000815260040161031290611edb565b60405180910390fd5b60036005811115610355577f4e487b7100000000000000000000000000000000000000000000000000000000600052602160045260246000fd5b600460009054906101000a900460ff16600581111561039d577f4e487b7100000000000000000000000000000000000000000000000000000000600052602160045260246000fd5b146103dd576040517f08c379a00000000000000000000000000000000000000000000000000000000081526004016103d490611e5b565b60405180910390fd5b6000600260003373ffffffffffffffffffffffffffffffffffffffff1673ffffffffffffffffffffffffffffffffffffffff16815260200190815260200160002090508060000160019054906101000a900460ff1615610472576040517f08c379a000000000000000000000000000000000000000000000000000000000815260040161046990611e1b565b60405180910390fd5b60018160000160016101000a81548160ff021916908315150217905550818160010181905550600382815481106104d2577f4e487b7100000000000000000000000000000000000000000000000000000000600052603260045260246000fd5b906000526020600020906002020160010160008154809291906104f4906121ba565b91905055507f4d99b957a2bc29a30ebd96a7be8e68fe50a3c701db28a91436490b7d53870ca4338360405161052a929190611d27565b60405180910390a15050565b6003818154811061054657600080fd5b906000526020600020906002020160009150905080600001805461056990612157565b80601f016020809104026020016040519081016040528092919081815260200182805461059590612157565b80156105e25780601f106105b7576101008083540402835291602001916105e2565b820191906000526020600020905b8154815290600101906020018083116105c557829003601f168201915b5050505050908060010154905082565b600260003373ffffffffffffffffffffffffffffffffffffffff1673ffffffffffffffffffffffffffffffffffffffff16815260200190815260200160002060000160009054906101000a900460ff16610681576040517f08c379a000000000000000000000000000000000000000000000000000000000815260040161067890611edb565b60405180910390fd5b600160058111156106bb577f4e487b7100000000000000000000000000000000000000000000000000000000600052602160045260246000fd5b600460009054906101000a900460ff166005811115610703577f4e487b7100000000000000000000000000000000000000000000000000000000600052602160045260246000fd5b14610743576040517f08c379a000000000000000000000000000000000000000000000000000000000815260040161073a90611f1b565b60405180910390fd5b600360405180604001604052808381526020016000815250908060018154018082558091505060019003906000526020600020906002020160009091909190915060008201518160000190805190602001906107a092919061180e565b506020820151816001015550507f92e393e9b54e2f801d3ea4beb0c5e71a21cc34a5d34b77d0fb8a3aa1650dc18f60016003805490506107e09190612074565b6040516107ed9190611fbb565b60405180910390a150565b600460019054906101000a900473ffffffffffffffffffffffffffffffffffffffff1673ffffffffffffffffffffffffffffffffffffffff163373ffffffffffffffffffffffffffffffffffffffff1614610888576040517f08c379a000000000000000000000000000000000000000000000000000000000815260040161087f90611f3b565b60405180910390fd5b600460058111156108c2577f4e487b7100000000000000000000000000000000000000000000000000000000600052602160045260246000fd5b600460009054906101000a900460ff16600581111561090a577f4e487b7100000000000000000000000000000000000000000000000000000000600052602160045260246000fd5b1461094a576040517f08c379a000000000000000000000000000000000000000000000000000000000815260040161094190611ebb565b60405180910390fd5b60008060005b600380549050811015610a15578260038281548110610998577f4e487b7100000000000000000000000000000000000000000000000000000000600052603260045260246000fd5b9060005260206000209060020201600101541115610a0257600381815481106109ea577f4e487b7100000000000000000000000000000000000000000000000000000000600052603260045260246000fd5b90600052602060002090600202016001015492508091505b8080610a0d906121ba565b915050610950565b50806001819055506005600460006101000a81548160ff02191690836005811115610a69577f4e487b7100000000000000000000000000000000000000000000000000000000600052602160045260246000fd5b02179055505050565b600460019054906101000a900473ffffffffffffffffffffffffffffffffffffffff1673ffffffffffffffffffffffffffffffffffffffff163373ffffffffffffffffffffffffffffffffffffffff1614610b02576040517f08c379a0000000000000000000000000000000000000000000000000000000008152600401610af990611f3b565b60405180910390fd5b60016005811115610b3c577f4e487b7100000000000000000000000000000000000000000000000000000000600052602160045260246000fd5b600460009054906101000a900460ff166005811115610b84577f4e487b7100000000000000000000000000000000000000000000000000000000600052602160045260246000fd5b14610bc4576040517f08c379a0000000000000000000000000000000000000000000000000000000008152600401610bbb90611f7b565b60405180910390fd5b6002600460006101000a81548160ff02191690836005811115610c10577f4e487b7100000000000000000000000000000000000000000000000000000000600052602160045260246000fd5b02179055507f0a97a4ee45751e2abf3e4fc8946939630b11b371ea8ae39ccdc3056e98f5cc3f6001600460009054906101000a900460ff16604051610c56929190611da2565b60405180910390a1565b610c686116c4565b610c726000611742565b565b60008060009054906101000a900473ffffffffffffffffffffffffffffffffffffffff16905090565b60026020528060005260406000206000915090508060000160009054906101000a900460ff16908060000160019054906101000a900460ff16908060010154905083565b600460019054906101000a900473ffffffffffffffffffffffffffffffffffffffff1673ffffffffffffffffffffffffffffffffffffffff163373ffffffffffffffffffffffffffffffffffffffff1614610d71576040517f08c379a0000000000000000000000000000000000000000000000000000000008152600401610d6890611f3b565b60405180910390fd5b60036005811115610dab577f4e487b7100000000000000000000000000000000000000000000000000000000600052602160045260246000fd5b600460009054906101000a900460ff166005811115610df3577f4e487b7100000000000000000000000000000000000000000000000000000000600052602160045260246000fd5b14610e33576040517f08c379a0000000000000000000000000000000000000000000000000000000008152600401610e2a90611f9b565b60405180910390fd5b60048060006101000a81548160ff02191690836005811115610e7e577f4e487b7100000000000000000000000000000000000000000000000000000000600052602160045260246000fd5b02179055507f0a97a4ee45751e2abf3e4fc8946939630b11b371ea8ae39ccdc3056e98f5cc3f6003600460009054906101000a900460ff16604051610ec4929190611da2565b60405180910390a1565b60015481565b600460019054906101000a900473ffffffffffffffffffffffffffffffffffffffff1673ffffffffffffffffffffffffffffffffffffffff163373ffffffffffffffffffffffffffffffffffffffff1614610f64576040517f08c379a0000000000000000000000000000000000000000000000000000000008152600401610f5b90611f3b565b60405180910390fd5b60006005811115610f9e577f4e487b7100000000000000000000000000000000000000000000000000000000600052602160045260246000fd5b600460009054906101000a900460ff166005811115610fe6577f4e487b7100000000000000000000000000000000000000000000000000000000600052602160045260246000fd5b14611026576040517f08c379a000000000000000000000000000000000000000000000000000000000815260040161101d90611efb565b60405180910390fd5b60005b8151811015611227576002600083838151811061106f577f4e487b7100000000000000000000000000000000000000000000000000000000600052603260045260246000fd5b602002602001015173ffffffffffffffffffffffffffffffffffffffff1673ffffffffffffffffffffffffffffffffffffffff16815260200190815260200160002060000160009054906101000a900460ff1615611102576040517f08c379a00000000000000000000000000000000000000000000000000000000081526004016110f990611e7b565b60405180910390fd5b600160026000848481518110611141577f4e487b7100000000000000000000000000000000000000000000000000000000600052603260045260246000fd5b602002602001015173ffffffffffffffffffffffffffffffffffffffff1673ffffffffffffffffffffffffffffffffffffffff16815260200190815260200160002060000160006101000a81548160ff0219169083151502179055507fb6be2187d059cc2a55fe29e0e503b566e1e0f8c8780096e185429350acffd3dd8282815181106111f7577f4e487b7100000000000000000000000000000000000000000000000000000000600052603260045260246000fd5b602002602001015160405161120c9190611d0c565b60405180910390a1808061121f906121ba565b915050611029565b5050565b600460019054906101000a900473ffffffffffffffffffffffffffffffffffffffff1673ffffffffffffffffffffffffffffffffffffffff163373ffffffffffffffffffffffffffffffffffffffff16146112bb576040517f08c379a00000000000000000000000000000000000000000000000000000000081526004016112b290611f3b565b60405180910390fd5b600060058111156112f5577f4e487b7100000000000000000000000000000000000000000000000000000000600052602160045260246000fd5b600460009054906101000a900460ff16600581111561133d577f4e487b7100000000000000000000000000000000000000000000000000000000600052602160045260246000fd5b1461137d576040517f08c379a000000000000000000000000000000000000000000000000000000000815260040161137490611dfb565b60405180910390fd5b6001600460006101000a81548160ff021916908360058111156113c9577f4e487b7100000000000000000000000000000000000000000000000000000000600052602160045260246000fd5b02179055507f0a97a4ee45751e2abf3e4fc8946939630b11b371ea8ae39ccdc3056e98f5cc3f6000600460009054906101000a900460ff1660405161140f929190611da2565b60405180910390a1565b600460019054906101000a900473ffffffffffffffffffffffffffffffffffffffff1673ffffffffffffffffffffffffffffffffffffffff163373ffffffffffffffffffffffffffffffffffffffff16146114a9576040517f08c379a00000000000000000000000000000000000000000000000000000000081526004016114a090611f3b565b60405180910390fd5b600260058111156114e3577f4e487b7100000000000000000000000000000000000000000000000000000000600052602160045260246000fd5b600460009054906101000a900460ff16600581111561152b577f4e487b7100000000000000000000000000000000000000000000000000000000600052602160045260246000fd5b1461156b576040517f08c379a000000000000000000000000000000000000000000000000000000000815260040161156290611e9b565b60405180910390fd5b6003600460006101000a81548160ff021916908360058111156115b7577f4e487b7100000000000000000000000000000000000000000000000000000000600052602160045260246000fd5b02179055507f0a97a4ee45751e2abf3e4fc8946939630b11b371ea8ae39ccdc3056e98f5cc3f6002600460009054906101000a900460ff166040516115fd929190611da2565b60405180910390a1565b61160f6116c4565b600073ffffffffffffffffffffffffffffffffffffffff168173ffffffffffffffffffffffffffffffffffffffff16141561167f576040517f08c379a000000000000000000000000000000000000000000000000000000000815260040161167690611e3b565b60405180910390fd5b61168881611742565b50565b600460009054906101000a900460ff1681565b600460019054906101000a900473ffffffffffffffffffffffffffffffffffffffff1681565b6116cc611806565b73ffffffffffffffffffffffffffffffffffffffff166116ea610c74565b73ffffffffffffffffffffffffffffffffffffffff1614611740576040517f08c379a000000000000000000000000000000000000000000000000000000000815260040161173790611f5b565b60405180910390fd5b565b60008060009054906101000a900473ffffffffffffffffffffffffffffffffffffffff169050816000806101000a81548173ffffffffffffffffffffffffffffffffffffffff021916908373ffffffffffffffffffffffffffffffffffffffff1602179055508173ffffffffffffffffffffffffffffffffffffffff168173ffffffffffffffffffffffffffffffffffffffff167f8be0079c531659141344cd1fd0a4f28419497f9722a3daafe3b4186f6b6457e060405160405180910390a35050565b600033905090565b82805461181a90612157565b90600052602060002090601f01602090048101928261183c5760008555611883565b82601f1061185557805160ff1916838001178555611883565b82800160010185558215611883579182015b82811115611882578251825591602001919060010190611867565b5b5090506118909190611894565b5090565b5b808211156118ad576000816000905550600101611895565b5090565b60006118c46118bf84611ffb565b611fd6565b905080838252602082019050828560208602820111156118e357600080fd5b60005b8581101561191357816118f9888261195b565b8452602084019350602083019250506001810190506118e6565b5050509392505050565b600061193061192b84612027565b611fd6565b90508281526020810184848401111561194857600080fd5b611953848285612115565b509392505050565b60008135905061196a8161269e565b92915050565b600082601f83011261198157600080fd5b81356119918482602086016118b1565b91505092915050565b600082601f8301126119ab57600080fd5b81356119bb84826020860161191d565b91505092915050565b6000813590506119d3816126b5565b92915050565b6000602082840312156119eb57600080fd5b60006119f98482850161195b565b91505092915050565b600060208284031215611a1457600080fd5b600082013567ffffffffffffffff811115611a2e57600080fd5b611a3a84828501611970565b91505092915050565b600060208284031215611a5557600080fd5b600082013567ffffffffffffffff811115611a6f57600080fd5b611a7b8482850161199a565b91505092915050565b600060208284031215611a9657600080fd5b6000611aa4848285016119c4565b91505092915050565b611ab6816120a8565b82525050565b611ac5816120ba565b82525050565b611ad481612103565b82525050565b6000611ae582612058565b611aef8185612063565b9350611aff818560208601612124565b611b08816122bf565b840191505092915050565b6000611b20603183612063565b9150611b2b826122d0565b604082019050919050565b6000611b43601783612063565b9150611b4e8261231f565b602082019050919050565b6000611b66602683612063565b9150611b7182612348565b604082019050919050565b6000611b89602183612063565b9150611b9482612397565b604082019050919050565b6000611bac601983612063565b9150611bb7826123e6565b602082019050919050565b6000611bcf602983612063565b9150611bda8261240f565b604082019050919050565b6000611bf2602383612063565b9150611bfd8261245e565b604082019050919050565b6000611c15601f83612063565b9150611c20826124ad565b602082019050919050565b6000611c38602483612063565b9150611c43826124d6565b604082019050919050565b6000611c5b602583612063565b9150611c6682612525565b604082019050919050565b6000611c7e602683612063565b9150611c8982612574565b604082019050919050565b6000611ca1602083612063565b9150611cac826125c3565b602082019050919050565b6000611cc4602f83612063565b9150611ccf826125ec565b604082019050919050565b6000611ce7602783612063565b9150611cf28261263b565b604082019050919050565b611d06816120f9565b82525050565b6000602082019050611d216000830184611aad565b92915050565b6000604082019050611d3c6000830185611aad565b611d496020830184611cfd565b9392505050565b6000606082019050611d656000830186611abc565b611d726020830185611abc565b611d7f6040830184611cfd565b949350505050565b6000602082019050611d9c6000830184611acb565b92915050565b6000604082019050611db76000830185611acb565b611dc46020830184611acb565b9392505050565b60006040820190508181036000830152611de58185611ada565b9050611df46020830184611cfd565b9392505050565b60006020820190508181036000830152611e1481611b13565b9050919050565b60006020820190508181036000830152611e3481611b36565b9050919050565b60006020820190508181036000830152611e5481611b59565b9050919050565b60006020820190508181036000830152611e7481611b7c565b9050919050565b60006020820190508181036000830152611e9481611b9f565b9050919050565b60006020820190508181036000830152611eb481611bc2565b9050919050565b60006020820190508181036000830152611ed481611be5565b9050919050565b60006020820190508181036000830152611ef481611c08565b9050919050565b60006020820190508181036000830152611f1481611c2b565b9050919050565b60006020820190508181036000830152611f3481611c4e565b9050919050565b60006020820190508181036000830152611f5481611c71565b9050919050565b60006020820190508181036000830152611f7481611c94565b9050919050565b60006020820190508181036000830152611f9481611cb7565b9050919050565b60006020820190508181036000830152611fb481611cda565b9050919050565b6000602082019050611fd06000830184611cfd565b92915050565b6000611fe0611ff1565b9050611fec8282612189565b919050565b6000604051905090565b600067ffffffffffffffff82111561201657612015612290565b5b602082029050602081019050919050565b600067ffffffffffffffff82111561204257612041612290565b5b61204b826122bf565b9050602081019050919050565b600081519050919050565b600082825260208201905092915050565b600061207f826120f9565b915061208a836120f9565b92508282101561209d5761209c612203565b5b828203905092915050565b60006120b3826120d9565b9050919050565b60008115159050919050565b60008190506120d48261268a565b919050565b600073ffffffffffffffffffffffffffffffffffffffff82169050919050565b6000819050919050565b600061210e826120c6565b9050919050565b82818337600083830152505050565b60005b83811015612142578082015181840152602081019050612127565b83811115612151576000848401525b50505050565b6000600282049050600182168061216f57607f821691505b6020821081141561218357612182612261565b5b50919050565b612192826122bf565b810181811067ffffffffffffffff821117156121b1576121b0612290565b5b80604052505050565b60006121c5826120f9565b91507fffffffffffffffffffffffffffffffffffffffffffffffffffffffffffffffff8214156121f8576121f7612203565b5b600182019050919050565b7f4e487b7100000000000000000000000000000000000000000000000000000000600052601160045260246000fd5b7f4e487b7100000000000000000000000000000000000000000000000000000000600052602160045260246000fd5b7f4e487b7100000000000000000000000000000000000000000000000000000000600052602260045260246000fd5b7f4e487b7100000000000000000000000000000000000000000000000000000000600052604160045260246000fd5b6000601f19601f8301169050919050565b7f43616e6e6f742073746172742070726f706f73616c732072656769737472617460008201527f696f6e20617420746869732074696d652e000000000000000000000000000000602082015250565b7f596f75206861766520616c726561647920766f7465642e000000000000000000600082015250565b7f4f776e61626c653a206e6577206f776e657220697320746865207a65726f206160008201527f6464726573730000000000000000000000000000000000000000000000000000602082015250565b7f54686520766f74696e672073657373696f6e206973206e6f742061637469766560008201527f2e00000000000000000000000000000000000000000000000000000000000000602082015250565b7f566f74657220616c726561647920726567697374657265642e00000000000000600082015250565b7f43616e6e6f7420737461727420766f74696e672073657373696f6e206174207460008201527f6869732074696d652e0000000000000000000000000000000000000000000000602082015250565b7f54686520766f74696e672073657373696f6e206973207374696c6c206163746960008201527f76652e0000000000000000000000000000000000000000000000000000000000602082015250565b7f596f7520617265206e6f74207265676973746572656420746f20766f74652e00600082015250565b7f43616e6e6f7420726567697374657220766f746572732061742074686973207460008201527f696d652e00000000000000000000000000000000000000000000000000000000602082015250565b7f50726f706f73616c7320726567697374726174696f6e206973206e6f7420616360008201527f746976652e000000000000000000000000000000000000000000000000000000602082015250565b7f4f6e6c79207468652061646d696e2063616e2063616c6c20746869732066756e60008201527f6374696f6e2e0000000000000000000000000000000000000000000000000000602082015250565b7f4f776e61626c653a2063616c6c6572206973206e6f7420746865206f776e6572600082015250565b7f43616e6e6f7420656e642070726f706f73616c7320726567697374726174696f60008201527f6e20617420746869732074696d652e0000000000000000000000000000000000602082015250565b7f43616e6e6f7420656e6420766f74696e672073657373696f6e2061742074686960008201527f732074696d652e00000000000000000000000000000000000000000000000000602082015250565b6006811061269b5761269a612232565b5b50565b6126a7816120a8565b81146126b257600080fd5b50565b6126be816120f9565b81146126c957600080fd5b5056fea2646970667358221220f901b8d512d02e88dd91811fde7b7aa1d5d29ce87520a38c3dbd9bfc25cd70d664736f6c63430008040033",
  "immutableReferences": {},
  "source": "// SPDX-License-Identifier: GPL-3.0\r\npragma solidity ^0.8.4;\r\n\r\nimport \"@openzeppelin/contracts/access/Ownable.sol\";\r\n\r\ncontract Voting is Ownable {\r\n\r\n    // Structures de donnes\r\n    \r\n    struct Voter {\r\n        bool isRegistered;\r\n        bool hasVoted;\r\n        uint votedProposalId;\r\n    }\r\n    \r\n    struct Proposal {\r\n        string description;\r\n        uint voteCount;\r\n    }\r\n\r\n    // numration des tats du processus de vote\r\n    \r\n    enum WorkflowStatus {\r\n        RegisteringVoters,\r\n        ProposalsRegistrationStarted,\r\n        ProposalsRegistrationEnded,\r\n        VotingSessionStarted,\r\n        VotingSessionEnded,\r\n        VotesTallied\r\n    }\r\n\r\n    uint public winningProposalId;\r\n\r\n    // vnements\r\n    \r\n    event VoterRegistered(address voterAddress);\r\n    event WorkflowStatusChange(WorkflowStatus previousStatus, WorkflowStatus newStatus);\r\n    event ProposalRegistered(uint proposalId);\r\n    event Voted (address voter, uint proposalId);\r\n\r\n    // Variables d'tat\r\n\r\n    mapping(address => Voter) public voters;\r\n    Proposal[] public proposals;\r\n    WorkflowStatus public currentWorkflowStatus;\r\n    address public admin;\r\n\r\n    // Modificateurs\r\n\r\n    modifier onlyAdmin() {\r\n        require(msg.sender == admin, \"Only the admin can call this function.\");\r\n        _;\r\n    }\r\n\r\n    modifier onlyRegisteredVoter() {\r\n        require(voters[msg.sender].isRegistered, \"You are not registered to vote.\");\r\n        _;\r\n    }\r\n\r\n    modifier onlyDuringVotingSession() {\r\n        require(currentWorkflowStatus == WorkflowStatus.VotingSessionStarted, \"The voting session is not active.\");\r\n        _;\r\n    }\r\n\r\n    modifier onlyAfterVotingSessionEnded() {\r\n        require(currentWorkflowStatus == WorkflowStatus.VotingSessionEnded, \"The voting session is still active.\");\r\n        _;\r\n    }\r\n\r\n    modifier onlyAfterProposalsRegistrationEnded() {\r\n        require(currentWorkflowStatus == WorkflowStatus.ProposalsRegistrationEnded, \"Proposals registration is still active.\");\r\n        _;\r\n    }\r\n\r\n    modifier onlyDuringProposalsRegistration() {\r\n    require(currentWorkflowStatus == WorkflowStatus.ProposalsRegistrationStarted, \"Proposals registration is not active.\");\r\n    _;\r\n}\r\n\r\n    // Fonctions d'administration\r\n\r\n    function registerVoters(address[] memory _voters) public onlyAdmin {\r\n        require(currentWorkflowStatus == WorkflowStatus.RegisteringVoters, \"Cannot register voters at this time.\");\r\n        for (uint i = 0; i < _voters.length; i++) {\r\n            require(!voters[_voters[i]].isRegistered, \"Voter already registered.\");\r\n            voters[_voters[i]].isRegistered = true;\r\n            emit VoterRegistered(_voters[i]);\r\n        }\r\n    }\r\n\r\n    function startProposalsRegistration() public onlyAdmin {\r\n        require(currentWorkflowStatus == WorkflowStatus.RegisteringVoters, \"Cannot start proposals registration at this time.\");\r\n        currentWorkflowStatus = WorkflowStatus.ProposalsRegistrationStarted;\r\n        emit WorkflowStatusChange(WorkflowStatus.RegisteringVoters, currentWorkflowStatus);\r\n    }\r\n\r\n    function endProposalsRegistration() public onlyAdmin {\r\n        require(currentWorkflowStatus == WorkflowStatus.ProposalsRegistrationStarted, \"Cannot end proposals registration at this time.\");\r\n        currentWorkflowStatus = WorkflowStatus.ProposalsRegistrationEnded;\r\n        emit WorkflowStatusChange(WorkflowStatus.ProposalsRegistrationStarted, currentWorkflowStatus);\r\n    }\r\n\r\n    function startVotingSession() public onlyAdmin {\r\n        require(currentWorkflowStatus == WorkflowStatus.ProposalsRegistrationEnded, \"Cannot start voting session at this time.\");\r\n        currentWorkflowStatus = WorkflowStatus.VotingSessionStarted;\r\n        emit WorkflowStatusChange(WorkflowStatus.ProposalsRegistrationEnded, currentWorkflowStatus);\r\n    }\r\n\r\n    function endVotingSession() public onlyAdmin {\r\n        require(currentWorkflowStatus == WorkflowStatus.VotingSessionStarted, \"Cannot end voting session at this time.\");\r\n        currentWorkflowStatus = WorkflowStatus.VotingSessionEnded;\r\n        emit WorkflowStatusChange(WorkflowStatus.VotingSessionStarted, currentWorkflowStatus);\r\n    }\r\n\r\n    function registerProposal(string memory _description) public onlyRegisteredVoter onlyDuringProposalsRegistration {\r\n        proposals.push(Proposal({\r\n            description: _description,\r\n            voteCount: 0\r\n        }));\r\n        emit ProposalRegistered(proposals.length - 1);\r\n    }\r\n\r\n    function vote(uint _proposalId) public onlyRegisteredVoter onlyDuringVotingSession {\r\n        Voter storage voter = voters[msg.sender];\r\n        require(!voter.hasVoted, \"You have already voted.\");\r\n        voter.hasVoted = true;\r\n        voter.votedProposalId = _proposalId;\r\n        proposals[_proposalId].voteCount++;\r\n        emit Voted(msg.sender, _proposalId);\r\n    }\r\n\r\n    function tallyVotes() public onlyAdmin onlyAfterVotingSessionEnded {\r\n        uint winningVoteCount = 0;\r\n        uint winningProposalIndex = 0;\r\n        for (uint i = 0; i < proposals.length; i++) {\r\n            if (proposals[i].voteCount > winningVoteCount) {\r\n                winningVoteCount = proposals[i].voteCount;\r\n                winningProposalIndex = i;\r\n            }\r\n        }\r\n        winningProposalId = winningProposalIndex;\r\n        currentWorkflowStatus = WorkflowStatus.VotesTallied;\r\n    }\r\n\r\n}\r\n",
  "sourcePath": "C:\\Users\\Brice\\.git\\blockchain-vote\\contracts\\Voting.sol",
  "compiler": {
    "name": "solc",
    "version": "0.8.4+commit.c7e474f2.Emscripten.clang"
  },
  "schemaVersion": "3.4.13",
  "updatedAt": "2023-05-03T10:34:05.501Z",
  "networkType": "ethereum",
  "devdoc": {
    "kind": "dev",
    "methods": {
      "owner()": {
        "details": "Returns the address of the current owner."
      },
      "renounceOwnership()": {
        "details": "Leaves the contract without owner. It will not be possible to call `onlyOwner` functions anymore. Can only be called by the current owner. NOTE: Renouncing ownership will leave the contract without an owner, thereby removing any functionality that is only available to the owner."
      },
      "transferOwnership(address)": {
        "details": "Transfers ownership of the contract to a new account (`newOwner`). Can only be called by the current owner."
      }
    },
    "version": 1
  },
  "userdoc": {
    "kind": "user",
    "methods": {},
    "version": 1
  }
}